:020000040000FA
:100000000C9463000C9437060C9410060C948B002F
:100010000C948B000C948B000C948B000C948B0034
:100020000C948B000C948B000C948B000C948B0024
:100030000C948B000C948B000C948B000C948B0014
:100040000C94C6050C948B000C9494050C946E05CE
:100050000C948B000C948B000C948B000C948B00F4
:100060000C948B000C948B000000000024002700EF
:100070002A0000000000250028002B0000000000DE
:1000800023002600290004040404040404040202DA
:100090000202020203030303030301020408102007
:1000A0004080010204081020010204081020000012
:1000B0000008000201000003040700000000000027
:1000C00000009A06BC0B11241FBECFEFD8E0DEBFA4
:1000D000CDBF24E0ACEDB2E001C01D92AF31B2075C
:1000E000E1F712E0A0E0B1E0E0EEF0E202C005903E
:1000F0000D92AC3DB107D9F710E0C2E6D0E004C0E4
:100100002197FE010E94620EC136D107C9F70E94F5
:1001100033070C9463100C9400008230B8F4E82F7D
:10012000F0E0EE0FFF1FE050FF4F718360838130DE
:1001300039F080916900836080936900E89A08959E
:10014000809169008C6080936900E99A089596E037
:10015000899FD0011124A455BC4F90967C936E9337
:100160005F9791E091969C939197E0911904F0919B
:100170001A0490911804992339F0309751F08111A5
:1001800008C08091C8030994309719F05C968C914F
:10019000FACF0895CF92DF92EF92FF920F931F93C1
:1001A00096E0899FF0011124E455FC4F11A2278DA0
:1001B00030A12130310551F178F02230310509F4B8
:1001C00051C02330310509F452C01F910F91FF90A7
:1001D000EF90DF90CF9008956623B9F361E070E06F
:1001E0000E94A7002FB7F8948091FF02909100031E
:1001F000A0910103B09102032FBF80930404909358
:100200000504A0930604B0930704DFCF9FB7F894CA
:10021000C090FF02D0900003E0900103F090020331
:100220009FBF0091040410910504209106043091B1
:100230000704C01AD10AE20AF30A009116041091C9
:10024000170430E020E00C151D052E053F0550F485
:1002500062E070E01F910F91FF90EF90DF90CF90E0
:100260000C94A7006111B1CF63E070E0F3CF70E0B0
:1002700060E0F0CFAF92BF92CF92DF92EF92FF9209
:100280000F931F93CF93DF936C017B018B01040FBE
:10029000151FEB015E01AE18BF08C017D10759F05A
:1002A0006991D601ED91FC910190F081E02DC6019C
:1002B0000995892B79F7C501DF91CF911F910F9196
:1002C000FF90EF90DF90CF90BF90AF900895FC012A
:1002D000538D448D252F30E0842F90E0821B930BAB
:1002E000541710F0CF96089501970895FC01918D51
:1002F000828D981761F0A28DAE0FBF2FB11D5D9654
:100300008C91928D9F5F9F73928F90E008958FEFF5
:100310009FEF0895FC01918D828D981731F0828DA9
:10032000E80FF11D858D90E008958FEF9FEF089500
:10033000FC01918D228D892F90E0805C9F4F821B64
:1003400091098F739927089583E093E00E949801A3
:1003500021E0892B09F420E0822F089580E090E0CD
:10036000892B29F00E94A40181110C9400000895AA
:10037000FC01A48DA80FB92FB11DA35ABF4F2C911A
:10038000848D90E001968F739927848FA689B78911
:100390002C93A089B1898C91837080648C93938D08
:1003A000848D981306C00288F389E02D80818F7DAB
:1003B00080830895EF92FF920F931F93CF93DF9363
:1003C000EC0181E0888F9B8D8C8D98131AC0E88991
:1003D000F989808185FF15C09FB7F894EE89FF8960
:1003E0006083E889F98980818370806480839FBFFE
:1003F00081E090E0DF91CF911F910F91FF90EF90FE
:100400000895F62E0B8D10E00F5F1F4F0F7311270D
:10041000E02E8C8D8E110CC00FB607FCFACFE88948
:10042000F989808185FFF5CFCE010E94B801F1CF17
:10043000EB8DEC0FFD2FF11DE35AFF4FF0829FB7BC
:10044000F8940B8FEA89FB8980818062CFCFCF93AC
:10045000DF93EC01888D8823B9F0AA89BB89E889EC
:10046000F9898C9185FD03C0808186FD0DC00FB692
:1004700007FCF7CF8C9185FFF2CF808185FFEDCF10
:10048000CE010E94B801E9CFDF91CF91089583306A
:1004900081F028F4813099F08230A9F008958730F6
:1004A000A9F08830C9F08430B1F4809180008F7D4C
:1004B00003C0809180008F7780938000089584B579
:1004C0008F7784BD089584B58F7DFBCF8091B00078
:1004D0008F778093B00008958091B0008F7DF9CF21
:1004E000CF93DF93282F30E0F901E255FF4F84913D
:1004F000F901E656FF4FD491F901EA57FF4FC49135
:10050000CC23A1F081110E944702EC2FF0E0EE0F06
:10051000FF1FE458FF4FA591B491EC91ED2381E0CA
:1005200090E009F480E0DF91CF91089580E090E0C1
:10053000FACF862F0C9470021F93CF93DF93282F4E
:1005400030E0F901E255FF4F8491F901E656FF4F83
:10055000D491F901EA57FF4FC491CC23A9F0162F8B
:1005600081110E944702EC2FF0E0EE0FFF1FEE58C2
:10057000FF4FA591B4918FB7F894EC91111108C079
:10058000D095DE23DC938FBFDF91CF911F9108952B
:10059000DE2BF8CF862F642F0C949C02CF93DF9331
:1005A00090E0FC01E656FF4F24918A579F4FFC01D3
:1005B00084918823C9F090E0880F991FFC01E859C5
:1005C000FF4FA591B491FC01EE58FF4FC591D49116
:1005D00061110DC09FB7F8948C91209582238C9364
:1005E0008881282328839FBFDF91CF9108956230AF
:1005F00051F49FB7F8943C91822F809583238C937C
:10060000E8812E2BEFCF8FB7F894EC912E2B2C9303
:100610008FBFEACF862F642F0C94CE028E3008F065
:100620008E508770806480937C0080917A00806413
:1006300080937A0080917A0086FDFCCF80917800CB
:100640009091790008953FB7F8948091DF029091DE
:10065000E002A091E102B091E20226B5A89B05C09C
:100660002F3F19F00196A11DB11D3FBFBA2FA92F31
:10067000982F8827BC01CD01620F711D811D911D2E
:1006800042E0660F771F881F991F4A95D1F708959A
:100690008F929F92AF92BF92CF92DF92EF92FF9292
:1006A0004B015C010E9423036B017C010E94230328
:1006B0006C197D098E099F09683E7340810591057B
:1006C000A8F321E0821A9108A108B10888EEC80EAB
:1006D00083E0D81EE11CF11C81149104A104B10433
:1006E00029F7FF90EF90DF90CF90BF90AF909F9051
:1006F0008F9008950895FC0101900020E9F731974B
:10070000AF01481B590BBC0183E093E00C943A0104
:100710008F929F92AF92BF920F931F93CF93DF93CD
:10072000CDB7DEB7A1970FB6F894DEBF0FBECDBF31
:1007300019A2423008F44AE08E010F5D1F4F842E4B
:10074000912CB12CA12CA50194010E94400EE62F02
:10075000B901CA01EA30F4F4E05DD801EE938D01ED
:10076000232B242B252B79F790E080E0109719F0AC
:10077000CD010E947B03A1960FB6F894DEBF0FBE99
:10078000CDBFDF91CF911F910F91BF90AF909F9000
:100790008F900895E95CE1CFCF93DF930E947B03B4
:1007A000EC0189E391E00E947B038C0F9D1FDF9198
:1007B000CF9108958091FC02882321F081E08093FD
:1007C000FE0208958CE391E00C94CC038091FD022D
:1007D000882321F081E08093FE0208958CE391E06C
:1007E0000C94CC038091EB02882321F081E080936C
:1007F000FE0208958CE391E00C94CC034F925F923B
:100800006F927F928F929F92AF92BF92CF92DF9220
:10081000EF92FF920F931F93CF936B017C01742E85
:10082000AC019B010E943B0E882399F082E591E088
:10083000CF911F910F91FF90EF90DF90CF90BF90DD
:10084000AF909F908F907F906F905F904F900C949F
:100850007B0346015701E894B7F82FEF3FEF4FE7CE
:100860005FE7C501B4010E943B0E81110DC02FEF5F
:100870003FEF4FE75FE7C501B4010E94CD0B1816AB
:100880001CF486E591E0D4CF2FEF3FEF4FE75FE414
:10089000C701B6010E94360E18161CF48AE591E0D5
:1008A000C7CF2FEF3FEF4FE75FECC701B6010E94C4
:1008B000CD0B87FDF3CF20E030E0A901C701B601E1
:1008C0000E94CD0B10E000E087FF0AC06DE283E0DC
:1008D00093E00E94DA018C01F7FAF094F7F8F094B3
:1008E000C0E060E070E080E09FE37C1641F020E033
:1008F00030E040E251E40E94950DCF5FF6CFA701B2
:1009000096010E94290D2B013C010E94070E4B010C
:100910005C014AE00E9488037C01E00EF11ECC23BA
:10092000C1F1C501B4010E94D20B9B01AC01C3010E
:10093000B2010E94280D4B015C016EE283E093E05E
:100940000E94DA01E80EF91EC15018F120E030E0F3
:1009500040E251E4C501B4010E94330C2B013C017B
:100960000E94070E4B01B12CA12C4AE0C501B40135
:100970000E948803E80EF91EC501B4010E94D20B43
:100980009B01AC01C301B2010E94280D4B015C0127
:10099000DBCFC701CF911F910F91FF90EF90DF90B8
:1009A000CF90BF90AF909F908F907F906F905F900F
:1009B0004F900895CF93DF9342E00E94FE03EC0135
:1009C00089E391E00E947B038C0F9D1FDF91CF9103
:1009D00008950C947B03CF92DF92EF92FF926C010B
:1009E0008EE591E00E94E9040D2C000CEE08FF0852
:1009F0004AE0C701B601F7FE0DC06DE283E093E067
:100A00000E94DA0166277727CB016C197D098E09D0
:100A10009F094AE00E94880384E691E00E94CC038B
:100A200082E991E00E94CC0360ED77E080E090E005
:100A3000FF90EF90DF90CF900C9448030F931F939B
:100A4000CF93DF93EC0188819981009759F02A8137
:100A50003B812617370730F081E0DF91CF911F915E
:100A60000F9108958B016F5F7F4F0E948D0F00974C
:100A700059F0998388831B830A832C813D81232B22
:100A800059F7FC011082E8CF80E0E7CF70E060E02A
:100A900080EA93E00E941E052091A0033091A103FB
:100AA000811113C02115310519F0C9010E94040FED
:100AB0001092A1031092A0031092A5031092A40318
:100AC0001092A3031092A20308951092A50310920E
:100AD000A4036BE371E0C9010C945C101F920F92A8
:100AE0000FB60F9211242F933F934F935F936F9301
:100AF0007F938F939F93AF93BF93EF93FF9383E085
:100B000093E00E94B801FF91EF91BF91AF919F9147
:100B10008F917F916F915F914F913F912F910F90A6
:100B20000FBE0F901F9018951F920F920FB60F9245
:100B300011242F938F939F93EF93FF93E0911303CF
:100B4000F09114038081E0911903F0911A0382FD62
:100B50001BC0908180911C038F5F8F7320911D03B8
:100B6000821741F0E0911C03F0E0ED5FFC4F958FA0
:100B700080931C03FF91EF919F918F912F910F9084
:100B80000FBE0F901F9018958081F4CF1F920F9287
:100B90000FB60F9211242F933F938F939F93AF9390
:100BA000BF938091FF0290910003A0910103B09147
:100BB00002033091DE0223E0230F2D3758F5019612
:100BC000A11DB11D2093DE028093FF0290930003CC
:100BD000A0930103B09302038091DF029091E002A1
:100BE000A091E102B091E2020196A11DB11D809396
:100BF000DF029093E002A093E102B093E202BF9182
:100C0000AF919F918F913F912F910F900FBE0F90B9
:100C10001F90189526E8230F0296A11DB11DD2CF73
:100C20001F920F920FB60F9211242F933F934F9361
:100C30005F936F937F938F939F93AF93BF93EF9344
:100C4000FF93E0910201F09103010995FF91EF916B
:100C5000BF91AF919F918F917F916F915F914F91D4
:100C60003F912F910F900FBE0F901F9018951F92DC
:100C70000F920FB60F9211242F933F934F935F93D0
:100C80006F937F938F939F93AF93BF93EF93FF9354
:100C9000E0910001F09101010995FF91EF91BF9161
:100CA000AF919F918F917F916F915F914F913F9104
:100CB0002F910F900FBE0F901F901895EF92FF92FB
:100CC0000F931F93CF93DF93EC017B01198218825E
:100CD0001B821A821D821C82FB0101900020E9F711
:100CE00031978F01061B170BB8010E941E05288142
:100CF0003981811113C02115310519F0C9010E94F4
:100D0000040F198218821D821C821B821A82DF91B5
:100D1000CF911F910F91FF90EF9008951D830C8349
:100D2000B701C901DF91CF911F910F91FF90EF9013
:100D30000C945C10109206031092050388EE93E069
:100D4000A0E0B0E08093070390930803A093090309
:100D5000B0930A0381E291E090930403809303032C
:100D600085EC90E09093100380930F0384EC90E067
:100D7000909312038093110380EC90E090931403FE
:100D80008093130381EC90E09093160380931503F6
:100D900082EC90E0909318038093170386EC90E028
:100DA00090931A038093190310921C0310921D0351
:100DB00010921E0310921F031092AE031092B20302
:100DC0001092B1031092B30383E391E09093AD03CB
:100DD0008093AC03E8ECF3E0108214821382158256
:100DE000369684E0E430F807B9F787E091E0909315
:100DF0000F0480930E0484E091E09093110480939B
:100E0000100484E08093120483E0809313048BE049
:100E100091E090930D0480930C048AE090E090930D
:100E200015048093140484EF91E090931704809349
:100E3000160410921A0410921904109208041092C9
:100E4000090410920A0410920B04109218046AE824
:100E500071E086EA93E00E945E066BE371E080EA4F
:100E600093E00C945E06CF93DF9300D0CDB7DEB74E
:100E7000789484B5826084BD84B5816084BD85B575
:100E8000826085BD85B5816085BD80916E00816081
:100E900080936E0010928100809181008260809327
:100EA0008100809181008160809381008091800029
:100EB0008160809380008091B10084608093B10054
:100EC0008091B00081608093B00080917A0084604E
:100ED00080937A0080917A00826080937A0080917A
:100EE0007A00816080937A0080917A008068809394
:100EF0007A001092C100E0911303F091140382E094
:100F00008083E0910F03F09110031082E0911103B0
:100F1000F09112038FEC808310921B03E091170372
:100F2000F091180386E08083E0911503F091160399
:100F3000808180618083E0911503F09116038081A8
:100F400088608083E0911503F091160380818068AA
:100F50008083E0911503F091160380818F7D80835B
:100F600061E08DE00E94CE0261E08CE00E94CE0242
:100F700061E08BE00E94CE0260E08EE00E94CE0233
:100F800060E08FE00E94CE0260E080E10E94CE022D
:100F900062E082E00E94CE0262E083E00E94CE0224
:100FA00062E080E00E94CE0260E270E080EA93E0BE
:100FB0000E941E0562EF73E080E00E948D0066EEE5
:100FC00073E081E00E948D006AED73E08FEF0E9474
:100FD0008D008FE891E00E94CC0385EC91E00E94A7
:100FE000CC0386EF91E00E94CC038FE891E00E9451
:100FF000CC0368EE73E080E090E00E94480370E06C
:10100000272E70E0372EDD24D39466E0462E8091A3
:10101000FE028111F2C110E000E00F5F1F4F0230AD
:10102000110509F4A3C00330110509F43AC18091F8
:10103000EB02811196C054EFE52EFF24F394B12CFE
:10104000C12C00E010E08EE00E940E03BC01990F5D
:10105000880B990B0E94D40B762E872E982EA92EE2
:101060002B2D3C2DA8010E94360E181624F4B72C07
:10107000C82C092D1A2D81E0E81AF10821F720E08B
:1010800030E040E85AE36B2D7C2DC8010E94330C00
:1010900020E030E44CE955E40E94330C6093E70211
:1010A0007093E8028093E9029093EA0220E030E432
:1010B0004CE155E40E94280D20E030E044E852E481
:1010C0000E94950D6093E3027093E4028093E50221
:1010D0009093E60287E292E00E94E9046091E702C1
:1010E0007091E8028091E9029091EA0242E00E9448
:1010F000FE038DE392E00E94E90483E492E00E9403
:10110000E9046091E3027091E4028091E50290911C
:10111000E6020E94DA0420E030E040E151E4609110
:10112000E3027091E4028091E5029091E6020E9450
:10113000CD0B18167CF060E08DE00E949C021092AE
:10114000EB0268EE73E080E090E00E94480301E06B
:1011500010E063CF61E08DE00E949C02D092EB0230
:10116000F0CF81E090E00E94EB04F1CF8091FD028E
:10117000811192C044EF842E99249394A12CB12C18
:10118000E12CF12C8FE00E940E03BC01990F880B1B
:10119000990B0E94D40B562E672E782EC92E9501DE
:1011A000A7010E94360E181624F4A52CB62CE72CA5
:1011B000FC2C91E0891A910829F720E030E040E802
:1011C0005AE3B501C7010E94330C20E030E44CE93A
:1011D00055E40E94330C6093F0027093F102809307
:1011E000F2029093F30220E030E44CE155E40E94D7
:1011F000280D20E030E044E852E40E94950D609311
:10120000EC027093ED028093EE029093EF028DE476
:1012100092E00E94E9046091F0027091F1028091E5
:10122000F2029091F30242E00E94FE038DE392E00D
:101230000E94E90483E492E00E94E9046091EC02D8
:101240007091ED028091EE029091EF020E94DA041B
:1012500020E030E040E151E46091EC027091ED0259
:101260008091EE029091EF020E94CD0B18166CF067
:1012700060E08CE00E949C021092FD0268EE73E038
:1012800080E090E00E944803C8CE61E08CE00E94BC
:101290009C02D092FD02F2CF82E090E00E94EB042B
:1012A000BCCE8091FC028111A3C034EFE32EFF2459
:1012B000F394B12CC12C00E010E080E10E940E03F9
:1012C000BC01990F880B990B0E94D40B762E872EA8
:1012D000982EA92E2B2D3C2DA8010E94360E1816F3
:1012E00024F4B72CC82C092D1A2DE1E0EE1AF108D0
:1012F00021F720E030E040E85AE36B2D7C2DC80157
:101300000E94330C20E030E44CE955E40E94330C99
:101310006093F8027093F9028093FA029093FB02B3
:1013200020E030E44CE155E40E94280D20E030E05C
:1013300044E852E40E94950D6093F4027093F50224
:101340008093F6029093F70284E692E00E94E9040B
:101350006091F8027091F9028091FA029091FB027B
:1013600042E00E94FE038DE392E00E94E90483E4E0
:1013700092E00E94E9046091F4027091F50280917C
:10138000F6029091F7020E94DA0482E991E00E944D
:10139000CC0320E030E040E151E46091F402709130
:1013A000F5028091F6029091F7020E94CD0B18167B
:1013B000C4F060E08BE00E949C021092FC0268EE98
:1013C00073E080E090E00E9448032114310409F4A6
:1013D0001ECE0E94A401882309F415CE0E940000AD
:1013E0000ECE61E08BE00E949C02D092FC02E7CF1F
:1013F00083E090E00E94EB04E8CFD09218048FB70E
:10140000F8944091FF0250910003609101037091A4
:1014100002038FBF8091080490910904A0910A04EF
:10142000B0910B04481B590B6A0B7B0B8091140481
:1014300090911504B0E0A0E084179507A607B707C0
:1014400008F01DC110E080911204181760F4E091BB
:101450000E04F0910F04E10FF11D62E080810E9403
:10146000CE021F5FF0CFC12C80911304C81608F084
:1014700063C0EC2CF12CE0911004F0911104EE0DFE
:10148000FF1D61E080810E94CE02E0911004F09186
:101490001104EE0DFF1D60E080810E949C0281E03E
:1014A00090E0A0E0B0E00C2C04C0880F991FAA1FA8
:1014B000BB1F0A94D2F74C015C01A094B094712C2C
:1014C00080911204781608F5072D10E0E0910E04C3
:1014D000F0910F04E00FF11F80810E9470020C5FF9
:1014E0001F4F000F111FF801E455FC4F892B41F4E9
:1014F0008081918188299929918380837394E0CF99
:10150000808191818A219B21F7CFE0911004F09195
:101510001104EE0DFF1D61E080810E949C0280910C
:10152000100490911104E80EF91E60E0F70180812B
:101530000E94CE02C39498CF9CEAA92E93E0B92EC4
:101540008501F801878D90A1892B31F4148E8FEFDE
:101550009FEF968F858F11A20A5F1F4FE8EEF3E091
:10156000E017F10771F7C12C80911204C81608F03A
:1015700052C0912CEC2CF12CEE0CFF1CC7018C54AA
:101580009C4F7C0120911304921608F042C0F70191
:1015900060817181092C02C0769567950A94E2F703
:1015A000C29E90011124290D311DECEAF3E080E088
:1015B000458D568D2417350709F4C1C08F5F3696C7
:1015C0008A30B1F760FF23C0ECEAF3E090E080E0FE
:1015D000448D411117C0E0910C04F0910D04E20F0D
:1015E000F31F4081489EF001499EF00D1124E455FF
:1015F000FC4F448F368F258F10A2178E61E00E941A
:10160000CA0005C0019636968A30910509F7939471
:10161000B9CFC394A9CF80E0F50191A19111892F91
:10162000F6E0AF0EB11CA016B106B1F79FB7F89463
:101630004091FF02509100036091010370910203F9
:101640009FBF409308045093090460930A04709369
:101650000B048823A1F08091CD03882381F0809131
:10166000CB039091CC03019751F48091C803882358
:1016700009F4ABCE8A3231F40E944605A6CE109210
:101680001804A3CE0091A4031091A503833241F561
:101690002091AA033091AB0302171307C1F4809184
:1016A000A6039091A7036091A0037091A1030097F6
:1016B00009F447C06115710539F4232B09F44FC0B3
:1016C000FC01808190E048C00E94531045C089E32E
:1016D00091E00E947B0384EA92E00E94CC03CCCF8D
:1016E00089831A820F5F1F4FB80180EA93E00E943E
:1016F0001E05882399F02091A0033091A1038091C9
:10170000A4039091A503BE016F5F7F4F820F931FCB
:101710000E945C101093A5030093A40389E391E059
:101720000E947B034091A4035091A5036091A00304
:101730007091A10383E093E00E943A0146CE61706C
:101740005ECF6115710559F0012B49F0FB018081D5
:1017500090E0919581959109892B09F0B8CF8AE79E
:1017600092E00E94CC030E9446058EE892E00E941F
:10177000CC031092FE0280CF8091A0039091A10330
:10178000009711F00E94040F8091A6039091A70387
:10179000009711F00C94040F08950E940F0C08F4A8
:1017A00081E00895E89409C097FB3EF490958095F8
:1017B000709561957F4F8F4F9F4F9923A9F0F92F17
:1017C00096E9BB279395F695879577956795B79595
:1017D000F111F8CFFAF4BB0F11F460FF1BC06F5F7B
:1017E0007F4F8F4F9F4F16C0882311F096E911C08D
:1017F000772321F09EE8872F762F05C0662371F0AE
:1018000096E8862F70E060E02AF09A95660F771FC1
:10181000881FDAF7880F9695879597F90895990F9D
:101820000008550FAA0BE0E8FEEF16161706E807AA
:10183000F907C0F012161306E407F50798F0621BCB
:10184000730B840B950B39F40A2661F0232B242BA0
:10185000252B21F408950A2609F4A140A6958FEFBF
:10186000811D811D08950E94460C0C94B70C0E94A6
:10187000A90C38F00E94B00C20F0952311F00C94C4
:10188000A00C0C94A60C11240C94EB0C0E94C80C18
:1018900070F3959FC1F3950F50E0551F629FF001C3
:1018A000729FBB27F00DB11D639FAA27F00DB11DDC
:1018B000AA1F649F6627B00DA11D661F829F222765
:1018C000B00DA11D621F739FB00DA11D621F839FEC
:1018D000A00D611D221F749F3327A00D611D231FC2
:1018E000849F600D211D822F762F6A2F11249F5710
:1018F00050409AF0F1F088234AF0EE0FFF1FBB1F13
:10190000661F771F881F91505040A9F79E3F5105D1
:1019100080F00C94A00C0C94EB0C5F3FE4F3983E29
:10192000D4F3869577956795B795F795E7959F5F7B
:10193000C1F7FE2B880F911D9695879597F908950D
:1019400097F99F6780E870E060E008959FEF80EC72
:10195000089500240A941616170618060906089515
:1019600000240A9412161306140605060895092E7B
:101970000394000C11F4882352F0BB0F40F4BF2BEA
:1019800011F460FF04C06F5F7F4F8F4F9F4F08952A
:1019900057FD9058440F551F59F05F3F71F0479520
:1019A000880F97FB991F61F09F3F79F08795089505
:1019B000121613061406551FF2CF4695F1DF08C024
:1019C000161617061806991FF1CF86957105610541
:1019D00008940895E894BB2766277727CB0197F9E9
:1019E00008952F923F924F925F926F927F928F92C3
:1019F0009F92AF92BF92CF92DF92EF92FF920F939E
:101A00001F93CF93DF93CDB7DEB7CA1BDB0B0FB6A7
:101A1000F894DEBF0FBECDBF09942A883988488864
:101A20005F846E847D848C849B84AA84B984C884FA
:101A3000DF80EE80FD800C811B81AA81B981CE0FF1
:101A4000D11D0FB6F894DEBF0FBECDBFED010895D6
:101A50005058BB27AA270E94400D0C94B70C0E9437
:101A6000A90C38F00E94B00C20F039F49F3F19F413
:101A700026F40C94A60C0EF4E095E7FB0C94A00C55
:101A8000E92F0E94C80C58F3BA176207730784073E
:101A9000950720F079F4A6F50C94EA0C0EF4E09585
:101AA0000B2EBA2FA02D0B01B90190010C01CA0118
:101AB000A0011124FF27591B99F0593F50F4503EC3
:101AC00068F11A16F040A22F232F342F4427585FB5
:101AD000F3CF469537952795A795F0405395C9F7CD
:101AE0007EF41F16BA0B620B730B840BBAF0915085
:101AF000A1F0FF0FBB1F661F771F881FC2F70EC024
:101B0000BA0F621F731F841F48F4879577956795F6
:101B1000B795F7959E3F08F0B0CF9395880F08F0E2
:101B20009927EE0F9795879508950E94A90D0C941B
:101B3000B70C0E94B00C58F00E94A90C40F029F498
:101B40005F3F29F00C94A00C51110C94EB0C0C94F9
:101B5000A60C0E94C80C68F39923B1F3552391F3A6
:101B6000951B550BBB27AA2762177307840738F00C
:101B70009F5F5F4F220F331F441FAA1FA9F335D069
:101B80000E2E3AF0E0E832D091505040E695001C1D
:101B9000CAF72BD0FE2F29D0660F771F881FBB1FD7
:101BA000261737074807AB07B0E809F0BB0B802DB5
:101BB000BF01FF2793585F4F3AF09E3F510578F0E1
:101BC0000C94A00C0C94EB0C5F3FE4F3983ED4F320
:101BD000869577956795B795F7959F5FC9F7880FB5
:101BE000911D9695879597F90895E1E0660F771F07
:101BF000881FBB1F621773078407BA0720F0621B98
:101C0000730B840BBA0BEE1F88F7E09508950E94C2
:101C1000D00C88F09F5798F0B92F9927B751B0F0A2
:101C2000E1F0660F771F881F991F1AF0BA95C9F760
:101C300014C0B13091F00E94EA0CB1E008950C9408
:101C4000EA0C672F782F8827B85F39F0B93FCCF3BB
:101C5000869577956795B395D9F73EF490958095DD
:101C6000709561957F4F8F4F9F4F08950E940F0C85
:101C700008F48FEF08950E940F0C880B990B0895BC
:101C8000A1E21A2EAA1BBB1BFD010DC0AA1FBB1F80
:101C9000EE1FFF1FA217B307E407F50720F0A21BF2
:101CA000B30BE40BF50B661F771F881F991F1A945F
:101CB00069F760957095809590959B01AC01BD0189
:101CC000CF010895EE0FFF1F0590F491E02D0994C8
:101CD0000F931F93CF93DF938230910510F482E02E
:101CE00090E0E0911D04F0911E0430E020E0B0E0AF
:101CF000A0E0309799F42115310509F44AC0281B5A
:101D0000390B24303105D8F58A819B816115710525
:101D100089F1FB0193838283FE0111C040815181CF
:101D20000281138148175907E0F04817590799F4C1
:101D3000109761F012960C93129713961C9332969B
:101D4000CF01DF91CF911F910F91089500931D0452
:101D500010931E04F4CF2115310551F0421753079B
:101D600038F0A901DB019A01BD01DF01F801C1CF03
:101D7000EF01F9CF90931E0480931D04CDCFFE0197
:101D8000E20FF31F81939193225031093983288305
:101D9000D7CF20911B0430911C04232B41F42091B8
:101DA000190130911A0130931C0420931B042091D7
:101DB0001701309118012115310541F42DB73EB7B7
:101DC00040911B0150911C01241B350BE0911B0419
:101DD000F0911C04E217F307A0F42E1B3F0B281709
:101DE000390778F0AC014E5F5F4F2417350748F094
:101DF0004E0F5F1F50931C0440931B0481939193DB
:101E00009FCFF0E0E0E09CCFCF93DF930097E9F025
:101E1000FC01329713821282A0911D04B0911E041E
:101E2000ED0130E020E01097A1F420813181820F94
:101E3000931F20911B0430911C042817390709F0C7
:101E400061C0F0931C04E0931B04DF91CF910895CF
:101E5000EA01CE17DF07E8F54A815B819E01411553
:101E60005105B1F7E901FB83EA8349915991C40F08
:101E7000D51FEC17FD0761F4808191810296840FD4
:101E8000951FE90199838883828193819B838A834B
:101E9000F0E0E0E012968D919C9113970097B9F5D0
:101EA0002D913C911197CD010296820F931F2091A5
:101EB0001B0430911C042817390739F6309751F567
:101EC00010921E0410921D04B0931C04A0931B04D6
:101ED000BCCFD383C28340815181840F951FC81723
:101EE000D90761F44E5F5F4F88819981480F591F70
:101EF000518340838A819B8193838283211531059D
:101F000009F0B0CFF0931E04E0931D049ECFFD01B5
:101F1000DC01C0CF13821282D7CFB0E0A0E0E3E9AA
:101F2000FFE00C94F30C8C01009751F4CB010E945C
:101F3000680E8C01C801CDB7DEB7E0E10C940F0D3F
:101F4000FC01E60FF71F9C0122503109E217F3074D
:101F500008F49DC0D901CD91DC911197C617D70720
:101F600098F0C530D10530F3CE0104978617970756
:101F700008F3C61BD70B2297C193D1936D937C9323
:101F8000CF010E94040FD6CF5B01AC1ABD0A4C01F1
:101F90008C0E9D1EA0911D04B0911E04512C412C4D
:101FA000F12CE12C109731F580911B0490911C04C9
:101FB0008815990509F05CC04616570608F058C008
:101FC0008091170190911801009741F48DB79EB749
:101FD00040911B0150911C01841B950BE817F907D8
:101FE00008F055C0F0931C04E0931B04F9017183C1
:101FF0006083A0CF8D919C91119712966C9012974F
:1020000013967C901397A815B90559F56C0142E019
:10201000C40ED11CCA14DB0420F1AC014A195B09BF
:10202000DA011296159780F06282738251834083A1
:10203000D9016D937C93E114F10471F0D7011396EB
:10204000FC93EE93129776CF22968C0F9D1FF90189
:1020500091838083F301EFCFF0931E04E0931D047E
:1020600069CF4816590608F42C017D01D3019ACF97
:10207000CB010E94680E7C01009749F0AE01B801C7
:102080000E944A10C8010E94040F870153CF10E03C
:1020900000E050CFFB01DC0102C001900D924150E5
:1020A0005040D8F70895FB01DC018D910190801913
:1020B0000110D9F3990B0895FB01DC0101900D92F9
:1020C0000020E1F7089510E0C2E6D0E004C0FE0170
:1020D0000E94620E2196C336D107C9F7F894FFCF4C
:1020E0007A037A0304090A080706053132333435C6
:1020F000363738392A302300001F048000000000E2
:1021000000DA013A0167012702980176018A01008D
:102110000000000A03CA0299020D0A004C494E450C
:10212000204953205354494C4C20574F524B494E51
:1021300047006E616E00696E66006F7666004C49FE
:102140004E45200020495320444F574E20505553B0
:10215000482054484520425554544F4E20544F2057
:102160005345542049542055500031393435002D01
:102170002D2D2D2D2D2D2D2D2D2D2D2D2D2D2D2D8F
:102180002D2D2D2D2D2D2D2D2D2D2D2D2D2D2D2D7F
:102190002D2D2D2D2D2D2D2D2D2D2D2D2D2D2D2D6F
:1021A0002D2D2D2D002D2D2D2D20202020202020E7
:1021B000205450204B5542555941204441564944E2
:1021C000204461726F6E6520202020202020202076
:1021D0002D2D2D2D2D002D2D2D2D202020202020AA
:1021E0002020202020544543483120554C50474C56
:1021F0002046535441202020202020202020202031
:10220000202D2D2D2D2D004C494E452031203A3AC0
:102210003A3A3A2056616C7565203D20006D562093
:102220003D20000920416D7073203D20004C494E37
:10223000452032203A3A3A3A3A202056616C756588
:10224000203D20004C494E452033203A3A3A3A3A54
:102250002056616C7565203D200070617373776F47
:10226000726420697320636F7272656374003A3A16
:102270003A3A204C494E45204953205550203A3A8D
:102280003A3A3A0070617373776F72642069732011
:10229000696E636F72726563742C20747279206149
:1022A0006761696E206F7220636F6E746163742062
:0C22B0004461766964204D61656E650034
:107E0000112484B714BE81FFF0D085E080938100F7
:107E100082E08093C00088E18093C10086E0809377
:107E2000C20080E18093C4008EE0C9D0259A86E02C
:107E300020E33CEF91E0309385002093840096BBD3
:107E4000B09BFECF1D9AA8958150A9F7CC24DD24C4
:107E500088248394B5E0AB2EA1E19A2EF3E0BF2EE7
:107E6000A2D0813461F49FD0082FAFD0023811F036
:107E7000013811F484E001C083E08DD089C08234E0
:107E800011F484E103C0853419F485E0A6D080C0E4
:107E9000853579F488D0E82EFF2485D0082F10E0AE
:107EA000102F00270E291F29000F111F8ED06801E7
:107EB0006FC0863521F484E090D080E0DECF843638
:107EC00009F040C070D06FD0082F6DD080E0C81688
:107ED00080E7D80618F4F601B7BEE895C0E0D1E017
:107EE00062D089930C17E1F7F0E0CF16F0E7DF06D8
:107EF00018F0F601B7BEE89568D007B600FCFDCFD4
:107F0000A601A0E0B1E02C9130E011968C91119780
:107F100090E0982F8827822B932B1296FA010C0160
:107F200087BEE89511244E5F5F4FF1E0A038BF0790
:107F300051F7F601A7BEE89507B600FCFDCF97BE46
:107F4000E89526C08437B1F42ED02DD0F82E2BD052
:107F50003CD0F601EF2C8F010F5F1F4F84911BD097
:107F6000EA94F801C1F70894C11CD11CFA94CF0C13
:107F7000D11C0EC0853739F428D08EE10CD085E9AC
:107F80000AD08FE07ACF813511F488E018D01DD067
:107F900080E101D065CF982F8091C00085FFFCCF94
:107FA0009093C60008958091C00087FFFCCF809118
:107FB000C00084FD01C0A8958091C6000895E0E648
:107FC000F0E098E1908380830895EDDF803219F02E
:107FD00088E0F5DFFFCF84E1DECF1F93182FE3DFCA
:107FE0001150E9F7F2DF1F91089580E0E8DFEE27F6
:047FF000FF270994CA
:027FFE00040479
:00000001FF
